:020000040800F2
:1000000000500020314F0008DD470008DF4700089E
:10001000E1470008E3470008E5470008000000004A
:100020000000000000000000000000002195000812
:10003000E747000800000000C19500088B92000807
:10004000794F0008794F0008794F0008794F000870
:10005000794F0008794F0008794F0008794F000860
:10006000794F0008794F0008794F0008E9470008E8
:10007000794F0008794F0008F9470008094800083F
:100080001948000829480008794F0008794F0008EE
:100090003948000849480008794F0008794F00089E
:1000A000794F0008794F0008794F00085948000837
:1000B00069480008794F0008794F0008794F000817
:1000C000794F0008794F0008794F0008794F0008F0
:1000D000794F00087948000889480008794F0008DE
:1000E000794F0008794F0008794F000800000000A0
:1000F0000000000000000000000000000000000000
:0C01000000000000000000005FF808F1A3
:1001100081F0004102E000BF83F0004330B54FEAB8
:1001200041044FEA430594EA050F08BF90EA020F25
:100130001FBF54EA000C55EA020C7FEA645C7FEAB8
:10014000655C00F0E2804FEA5454D4EB5555B8BFDB
:100150006D420CDD2C4480EA020281EA030382EA4C
:10016000000083EA010180EA020281EA0303362DDE
:1001700088BF30BD11F0004F4FEA01314FF4801CB1
:100180004CEA113102D0404261EB410113F0004FC3
:100190004FEA03334CEA133302D0524263EB43037A
:1001A00094EA050F00F0A780A4F10104D5F1200E18
:1001B0000DDB02FA0EFC22FA05F2801841F1000173
:1001C00003FA0EF2801843FA05F359410EE0A5F147
:1001D00020050EF1200E012A03FA0EFC28BF4CF078
:1001E000020C43FA05F3C01851EBE37101F000452E
:1001F00007D54FF0000EDCF1000C7EEB00006EEB3B
:100200000101B1F5801F1BD3B1F5001F0CD34908C4
:100210005FEA30004FEA3C0C04F101044FEA44521B
:1002200012F5800F80F09A80BCF1004F08BF5FEAA2
:10023000500C50F1000041EB045141EA050130BD82
:100240005FEA4C0C404141EB0101013C28BFB1F594
:10025000801FE9D291F0000F04BF01460020B1FADF
:1002600081F308BF2033A3F10B03B3F120020CDAB2
:100270000C3208DD02F1140CC2F10C0201FA0CF090
:1002800021FA02F10CE002F11402D8BFC2F1200CF5
:1002900001FA02F120FA0CFCDCBF41EA0C019040AB
:1002A000E41AA2BF01EB0451294330BD6FEA0404F4
:1002B0001F3C1CDA0C340EDC04F11404C4F12002DF
:1002C00020FA04F001FA02F340EA030021FA04F3F1
:1002D00045EA030130BDC4F10C04C4F1200220FA48
:1002E00002F001FA04F340EA0300294630BD21FA86
:1002F00004F0294630BD94F0000F83F4801306BF4C
:1003000081F480110134013D4EE77FEA645C18BF3F
:100310007FEA655C29D094EA050F08BF90EA020FD6
:1003200005D054EA000C04BF1946104630BD91EACE
:10033000030F1EBF0021002030BD5FEA545C05D1D1
:100340004000494128BF41F0004130BD14F5800410
:100350003CBF01F5801130BD01F0004545F0FE4184
:1003600041F470014FF0000030BD7FEA645C1ABFB9
:10037000194610467FEA655C1CBF0B46024650EAF0
:10038000013406BF52EA033591EA030F41F400211C
:1003900030BD00BF90F0000F04BF0021704730B5A2
:1003A0004FF4806404F132044FF000054FF0000177
:1003B00050E700BF90F0000F04BF0021704730B538
:1003C0004FF4806404F1320410F0004548BF40420D
:1003D0004FF000013EE700BF42004FEAE2014FEA62
:1003E00031014FEA02701FBF12F07F4393F07F4F3D
:1003F00081F06051704732F07F4208BF704793F040
:100400007F4F04BF41F40021704730B54FF4607452
:1004100001F0004521F000411CE700BF50EA010255
:1004200008BF704730B54FF000050AE050EA0102FE
:1004300008BF704730B511F0004502D5404261EB6E
:1004400041014FF4806404F132045FEA915C3FF4AF
:10045000D8AE4FF003025FEADC0C18BF03325FEA4C
:10046000DC0C18BF033202EBDC02C2F1200300FAFD
:1004700003FC20FA02F001FA03FE40EA0E0021FA22
:1004800002F11444BDE600BF70B54FF0FF0C4CF410
:10049000E06C1CEA11541DBF1CEA135594EA0C0FC2
:1004A00095EA0C0F00F0DEF82C4481EA030621EAFD
:1004B0004C5123EA4C5350EA013518BF52EA033538
:1004C00041F4801143F4801338D0A0FB02CE4FF0EA
:1004D0000005E1FB02E506F00042E0FB03E54FF01A
:1004E0000006E1FB03569CF0000F18BF4EF0010E12
:1004F000A4F1FF04B6F5007F64F5407404D25FEA0E
:100500004E0E6D4146EB060642EAC62141EA5551C0
:100510004FEAC52040EA5E504FEACE2EB4F1FD0C02
:1005200088BFBCF5E06F1ED8BEF1004F08BF5FEA80
:10053000500E50F1000041EB045170BD06F0004632
:1005400046EA010140EA020081EA0301B4EB5C04DF
:10055000C2BFD4EB0C0541EA045170BD41F48011D7
:100560004FF0000E013C00F3AB8014F1360FDEBFFC
:10057000002001F0004170BDC4F10004203C35DAD8
:100580000C341BDC04F11404C4F1200500FA05F35B
:1005900020FA04F001FA05F240EA020001F00042FC
:1005A00021F0004110EBD37021FA04F642EB060172
:1005B0005EEA430E08BF20EAD37070BDC4F10C049C
:1005C000C4F1200500FA04F320FA05F001FA04F260
:1005D00040EA020001F0004110EBD37041F100014C
:1005E0005EEA430E08BF20EAD37070BDC4F1200557
:1005F00000FA05F24EEA020E20FA04F301FA05F2BF
:1006000043EA020321FA04F001F0004121FA04F266
:1006100020EA020000EBD3705EEA430E08BF20EA36
:10062000D37070BD94F0000F0FD101F00046400070
:1006300041EB010111F4801F08BF013CF7D041EAF2
:10064000060195F0000F18BF704703F000465200F6
:1006500043EB030313F4801F08BF013DF7D043EAC7
:100660000603704794EA0C0F0CEA135518BF95EA7D
:100670000C0F0CD050EA410618BF52EA4306D1D104
:1006800081EA030101F000414FF0000070BD50EA23
:10069000410606BF1046194652EA430619D094EAAD
:1006A0000C0F02D150EA013613D195EA0C0F05D197
:1006B00052EA03361CBF104619460AD181EA0301EB
:1006C00001F0004141F0FE4141F470014FF00000A3
:1006D00070BD41F0FE4141F4780170BD70B54FF03E
:1006E000FF0C4CF4E06C1CEA11541DBF1CEA1355BE
:1006F00094EA0C0F95EA0C0F00F0A7F8A4EB0504A0
:1007000081EA030E52EA03354FEA013100F0888096
:100710004FEA03334FF0805545EA131343EA12635F
:100720004FEA022245EA111545EA10654FEA002614
:100730000EF000419D4208BF964244F1FD0404F5CD
:10074000407402D25B084FEA3202B61A65EB030529
:100750005B084FEA32024FF480104FF4002CB6EBE6
:10076000020E75EB030E22BFB61A754640EA0C0066
:100770005B084FEA3202B6EB020E75EB030E22BFA6
:10078000B61A754640EA5C005B084FEA3202B6EBE7
:10079000020E75EB030E22BFB61A754640EA9C00A6
:1007A0005B084FEA3202B6EB020E75EB030E22BF76
:1007B000B61A754640EADC0055EA060E18D04FEA34
:1007C000051545EA16754FEA06164FEAC30343EAD4
:1007D00052734FEAC2025FEA1C1CC0D111F4801FA1
:1007E0000BD141EA00014FF000004FF0004CB6E79A
:1007F00011F4801F04BF01430020B4F1FD0C88BF39
:10080000BCF5E06F3FF6AFAEB5EB030C04BFB6EB43
:10081000020C5FEA500C50F1000041EB045170BD36
:100820000EF0004E4EEA113114EB5C04C2BFD4EB63
:100830000C0541EA045170BD41F480114FF0000EE7
:10084000013C90E645EA060E8DE60CEA135594EA63
:100850000C0F08BF95EA0C0F3FF43BAF94EA0C0F66
:100860000AD150EA01347FF434AF95EA0C0F7FF4DB
:1008700025AF104619462CE795EA0C0F06D152EA2F
:1008800003353FF4FDAE1046194622E750EA410613
:1008900018BF52EA43067FF4C5AE50EA41047FF424
:1008A0000DAF52EA43057FF4EBAE12E74FF0FF3C89
:1008B00006E000BF4FF0010C02E000BF4FF0010C5A
:1008C0004DF804CD4FEA410C7FEA6C5C4FEA430CD3
:1008D00018BF7FEA6C5C1BD001B050EA410C0CBF22
:1008E00052EA430C91EA030F02BF90EA020F002084
:1008F000704710F1000F91EA030F58BF994208BFEB
:1009000090422CBFD8176FEAE37040F001007047A7
:100910004FEA410C7FEA6C5C02D150EA013C07D1FE
:100920004FEA430C7FEA6C5CD6D152EA033CD3D049
:100930005DF8040B704700BF8446104662468C4643
:100940001946634600E000BF01B5FFF7B7FF002876
:1009500048BF10F1000F01BD4DF808EDFFF7F4FF9F
:100960000CBF012000205DF808FB00BF4DF808ED2A
:10097000FFF7EAFF34BF012000205DF808FB00BF4D
:100980004DF808EDFFF7E0FF94BF012000205DF86F
:1009900008FB00BF4DF808EDFFF7CEFF94BF012024
:1009A00000205DF808FB00BF4DF808EDFFF7C4FF1D
:1009B00034BF012000205DF808FB00BF4FEA410270
:1009C00012F5001215D211D56FF47873B3EB6252A1
:1009D00012D94FEAC12343F0004343EA505311F0C8
:1009E000004F23FA02F018BF404270474FF000005A
:1009F000704750EA013005D111F0004008BF6FF098
:100A0000004070474FF00000704700BF4A0011D20D
:100A100012F5001211D20DD56FF47873B3EB625258
:100A20000ED44FEAC12343F0004343EA505323FA64
:100A300002F070474FF00000704750EA013002D1D9
:100A40004FF0FF3070474FF0000070474FEA41020F
:100A5000B2F1E04324BFB3F5001CDCF1FE5C0DD91C
:100A600001F0004C4FEAC0024CEA5070B2F1004F66
:100A700040EB830008BF20F00100704711F0804F69
:100A800021D113F13872BCBF01F00040704741F42E
:100A900080114FEA5252C2F11802C2F1200C10FA32
:100AA0000CF320FA02F018BF40F001004FEAC12316
:100AB0004FEAD32303FA0CFC40EA0C0023FA02F3BA
:100AC0004FEA4303CCE77FEA625307D150EA013390
:100AD0001EBF4FF0FE4040F44000704701F0004060
:100AE00040F0FE4040F40000704700BF80F000403E
:100AF00002E000BF81F0004142001FBF5FEA4103F6
:100B000092EA030F7FEA226C7FEA236C6AD04FEAF5
:100B10001262D2EB1363C1BFD2184140484041403A
:100B2000B8BF5B42192B88BF704710F0004F40F4EC
:100B3000000020F07F4018BF404211F0004F41F408
:100B4000000121F07F4118BF494292EA030F3FD0D4
:100B5000A2F1010241FA03FC10EB0C00C3F12003E7
:100B600001FA03F100F0004302D5494260EB400076
:100B7000B0F5000F13D3B0F1807F06D340084FEAE1
:100B8000310102F10102FE2A51D2B1F1004F40EBD6
:100B9000C25008BF20F0010040EA0300704749003E
:100BA00040EB0000013A28BFB0F5000FEDD2B0FADB
:100BB00080FCACF1080CB2EB0C0200FA0CF0AABFFE
:100BC00000EBC25052421843BCBFD040184370479C
:100BD00092F0000F81F4000106BF80F400000132A2
:100BE000013BB5E74FEA41037FEA226C18BF7FEA79
:100BF000236C21D092EA030F04D092F0000F08BFBB
:100C00000846704790EA010F1CBF0020704712F0A1
:100C10007F4F04D1400028BF40F00040704712F1E0
:100C200000723CBF00F50000704700F0004343F045
:100C3000FE4040F4000070477FEA226216BF08467B
:100C40007FEA23630146420206BF5FEA412390EA3E
:100C5000010F40F4800070474FF0000304E000BF34
:100C600010F0004348BF40425FEA000C08BF7047E5
:100C700043F0964301464FF000001CE050EA0102A9
:100C800008BF70474FF000030AE000BF50EA0102BE
:100C900008BF704711F0004302D5404261EB4101AB
:100CA0005FEA010C02BF84460146002043F0B643D0
:100CB00008BFA3F18053A3F50003BCFA8CF2083AF5
:100CC000A3EBC25310DB01FA02FC634400FA02FCFE
:100CD000C2F12002BCF1004F20FA02F243EB020005
:100CE00008BF20F00100704702F1200201FA02FC67
:100CF000C2F1200250EA4C0021FA02F243EB02005A
:100D000008BF20EADC7070474FF0FF0C1CEAD0529D
:100D10001EBF1CEAD15392EA0C0F93EA0C0F6FD05E
:100D20001A4480EA010C400218BF5FEA41211ED03C
:100D30004FF0006343EA501043EA5111A0FB013128
:100D40000CF00040B1F5000F3EBF490041EAD371FD
:100D50005B0040EA010062F17F02FD2A1DD8B3F179
:100D6000004F40EBC25008BF20F00100704790F0E8
:100D7000000F0CF0004C08BF49024CEA502040EA3A
:100D800051207F3AC2BFD2F1FF0340EAC250704700
:100D900040F400004FF00003013A5DDC12F1190F3E
:100DA000DCBF00F000407047C2F10002410021FAB0
:100DB00002F1C2F1200200FA02FC5FEA310040F1C8
:100DC000000053EA4C0308BF20EADC70704792F041
:100DD000000F00F0004C02BF400010F4000F013A79
:100DE000F9D040EA0C0093F0000F01F0004C02BF74
:100DF000490011F4000F013BF9D041EA0C018FE7E3
:100E00000CEAD15392EA0C0F18BF93EA0C0F0AD0E8
:100E100030F0004C18BF31F0004CD8D180EA01000E
:100E200000F00040704790F0000F17BF90F0004FA7
:100E3000084691F0000F91F0004F14D092EA0C0F89
:100E400001D142020FD193EA0C0F03D14B0218BF1C
:100E5000084608D180EA010000F0004040F0FE4062
:100E600040F40000704740F0FE4040F440007047FE
:100E70004FF0FF0C1CEAD0521EBF1CEAD15392EA7D
:100E80000C0F93EA0C0F69D0A2EB030280EA010C6D
:100E900049024FEA402037D04FF0805343EA111106
:100EA00043EA10130CF000408B4238BF5B0042F164
:100EB0007D024FF4000C8B4224BF5B1A40EA0C0009
:100EC000B3EB510F24BFA3EB510340EA5C00B3EB3B
:100ED000910F24BFA3EB910340EA9C00B3EBD10F29
:100EE00024BFA3EBD10340EADC001B0118BF5FEA7B
:100EF0001C1CE0D1FD2A3FF650AF8B4240EBC250A4
:100F000008BF20F0010070470CF0004C4CEA502064
:100F10007F32C2BFD2F1FF0340EAC250704740F4B3
:100F200000004FF00003013A37E792F0000F00F0A5
:100F3000004C02BF400010F4000F013AF9D040EA23
:100F40000C0093F0000F01F0004C02BF490011F4B7
:100F5000000F013BF9D041EA0C0195E70CEAD153AF
:100F600092EA0C0F08D142027FF47DAF93EA0C0F96
:100F70007FF470AF084676E793EA0C0F04D14B027A
:100F80003FF44CAF08466EE730F0004C18BF31F02C
:100F9000004CCAD130F000427FF45CAF31F0004326
:100FA0007FF43CAF5FE700BF4FF0FF3C06E000BFBF
:100FB0004FF0010C02E000BF4FF0010C4DF804CDE2
:100FC0004FEA40024FEA41037FEA226C18BF7FEAF2
:100FD000236C11D001B052EA530C18BF90EA010FF4
:100FE00058BFB2EB030088BFC81738BF6FEAE17083
:100FF00018BF40F0010070477FEA226C02D15FEA1F
:10100000402C05D17FEA236CE4D15FEA412CE1D08A
:101010005DF8040B704700BF844608466146FFE751
:101020000FB5FFF7C9FF002848BF10F1000F0FBD33
:101030004DF808EDFFF7F4FF0CBF012000205DF82C
:1010400008FB00BF4DF808EDFFF7EAFF34BF0120B1
:1010500000205DF808FB00BF4DF808EDFFF7E0FF4A
:1010600094BF012000205DF808FB00BF4DF808ED9B
:10107000FFF7D2FF94BF012000205DF808FB00BFFE
:101080004DF808EDFFF7C8FF34BF012000205DF8E0
:1010900008FB00BF4FEA4002B2F1FE4F0FD34FF002
:1010A0009E03B3EB12620DD94FEA002343F00043D5
:1010B00010F0004F23FA02F018BF404270474FF083
:1010C0000000704712F1610F01D1420205D110F00A
:1010D000004008BF6FF0004070474FF000007047BD
:1010E00042000ED2B2F1FE4F0BD34FF09E03B3EB92
:1010F000126209D44FEA002343F0004323FA02F0BE
:1011000070474FF00000704712F1610F01D14202A9
:1011100002D14FF0FF3070474FF00000704700BF22
:10112000844641EA000313F0030349D1403A23D334
:101130000B6803604B6843608B688360CB68C36057
:101140000B6903614B6943618B698361CB69C3613F
:101150000B6A03624B6A43628B6A8362CB6AC36227
:101160000B6B03634B6B43638B6B8363CB6BC3630F
:1011700040304031403ADBD230320BD30B68036051
:101180004B6843608B688360CB68C360103010315C
:10119000103AF3D20C3205D351F8043B40F8043B2B
:1011A000043AF9D2043208D0D2071CBF11F8013B2F
:1011B00000F8013B01D30B8803806046704700BFF5
:1011C000082A13D38B07B1D010F00303AED0C3F1BC
:1011D0000403D21ADB071CBF11F8013B00F8013BE6
:1011E000A4D331F8023B20F8023B9FE7043AD9D35D
:1011F000013A11F8013B00F8013BF9D20B7803707A
:101200004B7843708B788370604670474FEA410C8F
:101210007FEA6C5C02D150EA013C0AD14FEA430CF0
:101220007FEA6C5C02D152EA033C02D14FF000002D
:1012300070474FF0010070470348044B834202D0CF
:10124000034B03B11847704798050020980500200C
:10125000000000000548064B1B1AD90F01EBA30143
:10126000491002D0034B03B118477047980500207E
:10127000980500200000000010B5064C237843B903
:10128000FFF7DAFF044B13B10448AFF300800123EA
:10129000237010BD980500200000000060BC00080D
:1012A00008B5054B1BB105490548AFF30080BDE803
:1012B0000840FFF7CFBF00BF000000009C050020E2
:1012C00060BC00080000000070B582B0044608460B
:1012D0000D49FFF719FD06462046FFF76BF8044657
:1012E0000D463046FFF7FCFE009005A3D3E900232E
:1012F0002046294602F0CEF902B070BDAFF300805F
:101300007B14AE47E17A943F000048432DE9F84F43
:101310004FF07E5529464FF4F770FFF7D5FF294669
:101320004FF4C470FFF7D0FF4FF0804421464FF4D4
:10133000F770FFF7C9FF29464FF4C470FFF7C4FFE9
:1013400021464FF4F770FFF7BFFF29464FF4C470F2
:10135000FFF7BAFF214640F24B20FFF7B5FF2946C1
:101360004FF4C470FFF7B0FF294640F20B20FFF79F
:10137000ABFF294640F20B20FFF7A6FF29464FF4AA
:10138000C470FFF7A1FF29464FF4F770FFF79CFFE9
:10139000294640F20B20FFF797FF29464FF4F770DC
:1013A000FFF792FF29464FF4C470FFF78DFF2146E7
:1013B0004FF4F770FFF788FF29464FF4C470FFF72A
:1013C00083FF21464FF4F770FFF77EFF29464FF465
:1013D000C470FFF779FF214640F24B20FFF774FFFE
:1013E00029464FF4C470FFF76FFF294640F20B20E7
:1013F000FFF76AFF294640F20B20FFF765FF2946F9
:101400004FF4C470FFF760FF29464FF4F770FFF701
:101410005BFF294640F20B20FFF756FF29464FF4A9
:10142000F770FFF751FF29464FF4C470FFF74CFFE8
:1014300021464FF4F770FFF747FF29464FF4C47079
:10144000FFF742FF21464FF4F770FFF73DFF2946B3
:101450004FF4C470FFF738FF214640F24B20FFF7EE
:1014600033FF29464FF4C470FFF72EFF294640F2A0
:101470000B20FFF729FF294640F20B20FFF724FF3E
:1014800029464FF4C470FFF71FFF29464FF4F77049
:10149000FFF71AFF294640F20B20FFF715FF2946F8
:1014A0004FF4F770FFF710FF29464FF4C470FFF7B1
:1014B0000BFF21464FF4F770FFF706FF29464FF464
:1014C000C470FFF701FF21464FF4F770FFF7FCFEF1
:1014D00029464FF4C470FFF7F7FE214640F24B2037
:1014E000FFF7F2FE29464FF4C470FFF7EDFE2946E0
:1014F00040F20B20FFF7E8FE294640F20B20FFF7F1
:10150000E3FE29464FF4C470FFF7DEFE21464FF498
:101510009370FFF7D9FEDFF8488341464FF4A5707A
:10152000FFF7D2FE21464FF49370FFF7CDFE214620
:101530004FF4A570FFF7C8FE21464FF49370FFF7F4
:10154000C3FE21464FF4A570FFF7BEFE4FF0814663
:1015500031464FF4C470FFF7B7FE314640F20B201E
:10156000FFF7B2FE31464FF4F770FFF7ADFE31469C
:101570004FF4A570FFF7A8FE21464FF49370FFF7D4
:10158000A3FE41464FF4A570FFF79EFE21464FF49F
:101590009370FFF799FE21464FF4A570FFF794FE74
:1015A00021464FF49370FFF78FFE21464FF4A5704C
:1015B000FFF78AFE4FF0824A514640F20B20FFF7B8
:1015C00083FE21464FF4F770FFF77EFE314640F26E
:1015D0004B20FFF779FEA34F39464FF4A570FFF774
:1015E00073FE21464FF49370FFF76EFE21464FF4D1
:1015F000A570FFF769FE21464FF49370FFF764FE74
:1016000021464FF4A570FFF75FFE31464FF4F770A7
:10161000FFF75AFE314640F20B20FFF755FE3146E8
:101620004FF4F770FFF750FE31464FF4A570FFF707
:101630004BFE21464FF49370FFF746FE41464FF4B0
:10164000A570FFF741FE21464FF49370FFF73CFE73
:1016500021464FF4A570FFF737FE21464FF49370F3
:10166000FFF732FE21464FF4A570FFF72DFE3146FD
:101670004FF4F770FFF728FE314640F20B20FFF7DA
:1016800023FE394640F24B20FFF71EFE3146002074
:10169000FFF71AFE21464FF4A570FFF715FEDFF89D
:1016A000C89149460020FFF70FFE21464FF4A57070
:1016B000FFF70AFE29464FF49370FFF705FE6B4FC4
:1016C00039464FF4A570FFF7FFFD21464FF49370A4
:1016D000FFF7FAFD21464FF4A570FFF7F5FD21460F
:1016E0004FF4C470FFF7F0FD21460020FFF7ECFD3A
:1016F00021464FF4A570FFF7E7FD49460020FFF7AC
:10170000E3FD21464FF4A570FFF7DEFD29464FF4B7
:101710009370FFF7D9FD39464FF4A570FFF7D4FD5C
:1017200021464FF49370FFF7CFFD21464FF4A5708B
:10173000FFF7CAFD31464FF4C470FFF7C5FD4146BF
:101740004FF48370FFF7C0FD21460020FFF7BCFD7A
:1017500021464FF4A570FFF7B7FD49460020FFF77B
:10176000B3FD21464FF4A570FFF7AEFD29464FF4B7
:101770009370FFF7A9FD39464FF4A570FFF7A4FD5C
:1017800021464FF49370FFF79FFD21464FF483707D
:10179000FFF79AFD21464FF49370FFF795FD214620
:1017A0000020FFF791FD21464FF4A570FFF78CFD57
:1017B00049460020FFF788FD21464FF4A570FFF74A
:1017C00083FD29464FF49370FFF77EFD39464FF4B1
:1017D000A570FFF779FD21464FF49370FFF774FD74
:1017E00021464FF4A570FFF76FFD21464FF4C470FA
:1017F000FFF76AFD21460020FFF766FD21464FF402
:10180000A570FFF761FD49460020FFF75DFD214609
:101810004FF4A570FFF758FD29464FF49370FFF77A
:1018200053FD39464FF4A570FFF74EFD21464FF4A6
:101830009370FFF749FD21464FF4A570FFF744FD73
:10184000314640F20B20FFF73FFD41464FF48370D5
:10185000FFF73AFD21460020FFF736FD214607E05D
:101860000000C04000002041CDCC4C3E0000404074
:101870004FF4A570FFF728FD49460020FFF724FD2F
:1018800021464FF4A570FFF71FFD29464FF49370D2
:10189000FFF71AFD39464FF4A570FFF715FD2146F5
:1018A0004FF49370FFF710FD2146F720FFF70CFD72
:1018B0002946DC20FFF708FDD149C420FFF704FDCD
:1018C00029460020FFF700FD2946C420FFF7FCFC55
:1018D00049460020FFF7F8FC2946C420FFF7F4FC36
:1018E00049460020FFF7F0FC2946C420FFF7ECFC36
:1018F00031464FF4C470FFF7E7FC39464FF4A5704A
:10190000FFF7E2FC29464FF49370FFF7DDFC214618
:101910004FF48370FFF7D8FC49460020FFF7D4FC52
:1019200031464FF48370FFF7CFFC29460020FFF7C4
:10193000CBFC21464FF48370FFF7C6FCB149002071
:10194000FFF7C2FC21464FF48370FFF7BDFC214630
:101950004FF49370FFF7B8FC21464FF4A570FFF7E2
:10196000B3FC4146DC20FFF7AFFC21460020FFF727
:10197000ABFC2146DC20FFF7A7FC21464FF4A57005
:10198000FFF7A2FC21464FF49370FFF79DFC214620
:101990004FF48370FFF798FC41464FF49370FFF7C4
:1019A00093FC21460020FFF78FFC31464FF4A570D1
:1019B000FFF78AFC314640F25D10FFF785FC414697
:1019C0004FF4C470FFF780FC21464FF4A570FFF779
:1019D0007BFC21464FF4C470FFF776FC29464FF498
:1019E000A570FFF771FC39464FF4C470FFF76CFC2B
:1019F00031464FF4F770FFF767FC414640F20B2089
:101A0000FFF762FC21464FF48370FFF75DFC21462F
:101A10004FF49370FFF758FC21464FF4A570FFF781
:101A200053FC31464FF4C470FFF74EFC31464FF47F
:101A3000DC70FFF749FC29464FF4C470FFF744FC03
:101A400039464FF4DC70FFF73FFC29464FF4C47071
:101A5000FFF73AFCDFF8B0B159460020FFF734FC3D
:101A600039464FF4C470FFF72FFC59460020FFF7AA
:101A70002BFC31464FF4C470FFF726FC51464FF45F
:101A80009370FFF721FC31464FF4A570FFF71CFC63
:101A9000314640F25D10FFF717FC41464FF4C47029
:101AA000FFF712FC21464FF4A570FFF70DFC21460D
:101AB0004FF4C470FFF708FC29464FF4A570FFF7F8
:101AC00003FC39464FF4C470FFF7FEFB31464FF478
:101AD000F770FFF7F9FB414640F20B20FFF7F4FBEC
:101AE00021464FF48370FFF7EFFB21464FF49370CC
:101AF000FFF7EAFB21464FF4A570FFF7E5FB3146FF
:101B00004FF4F770FFF7E0FB41464FF4DC70FFF74E
:101B1000DBFB49460020FFF7D7FB21464FF4DC7082
:101B2000FFF7D2FB29464FF4C470FFF7CDFB3946CF
:101B30004FF4DC70FFF7C8FB314640F20B20FFF793
:101B4000C3FB414640F24B20FFF7BEFB214600207D
:101B5000FFF7BAFB21464FF4C470FFF7B5FB2146EF
:101B600040F20B20FFF7B0FB29464FF4F770FFF768
:101B7000ABFB264940F20B20FFF7A6FB31460020C5
:101B8000FFF7A2FB21460020FFF79EFB21464FF402
:101B9000A570FFF799FB49460020FFF795FB21460A
:101BA0004FF4A570FFF790FB29464FF49370FFF7B1
:101BB0008BFB39464FF4A570FFF786FB21464FF4A7
:101BC0009370FFF781FB21464FF4A570FFF77CFB74
:101BD00021464FF4C470FFF777FB21460020FFF742
:101BE00073FB21464FF4A570FFF76EFB49460020BA
:101BF000FFF76AFB21464FF4A570FFF765FB07E08E
:101C00000000A040CDCC4C3DCDCCCC3D00004041AF
:101C100029464FF49370FFF757FB39464FF4A570F0
:101C2000FFF752FB21464FF49370FFF74DFB21461F
:101C30004FF4A570FFF748FB31464FF4C470FFF72F
:101C400043FB41464FF48370FFF73EFB21460020E3
:101C5000FFF73AFB21464FF4A570FFF735FB4946E5
:101C60000020FFF731FB21464FF4A570FFF72CFB56
:101C700029464FF49370FFF727FB39464FF4A570C0
:101C8000FFF722FB21464FF49370FFF71DFB21461F
:101C90004FF48370FFF718FB21464FF49370FFF762
:101CA00013FB21460020FFF70FFB21464FF4A570E0
:101CB000FFF70AFB21464FF4A570FFF705FB294605
:101CC0004FF49370FFF700FB39464FF4A570FFF710
:101CD000FBFA254621464FF49370FFF7F5FA2146AB
:101CE0004FF4A570FFF7F0FA21464FF4C470FFF7E8
:101CF000EBFA21460020FFF7E7FA21464FF4A570E2
:101D0000FFF7E2FA49460020FFF7DEFA21464FF4DA
:101D1000A570FFF7D9FA4FF07E5631464FF4937015
:101D2000FFF7D2FAB84639464FF4A570FFF7CCFA60
:101D300021464FF49370FFF7C7FA21464FF4A57080
:101D4000FFF7C2FA4FF08144214640F20B20FFF723
:101D5000BBFAD24F39464FF48370FFF7B5FA2946E4
:101D60000020FFF7B1FA29464FF4A570FFF7ACFA4F
:101D700029464FF4A570FFF7A7FA31464FF4937048
:101D8000FFF7A2FA41464FF4A570FFF79DFA2946E6
:101D90004FF49370FFF798FA2946F720FFF794FA6B
:101DA0003146DC20FFF790FADFF8F4A25146C42058
:101DB000FFF78AFA31460020FFF786FA3146C42041
:101DC000FFF782FA49460020FFF77EFA3146C42029
:101DD000FFF77AFA49460020FFF776FA3146C42029
:101DE000FFF772FA21464FF4C470FFF76DFA4146CF
:101DF0004FF4A570FFF768FA31464FF49370FFF780
:101E000063FA29464FF48370FFF75EFA49460020D3
:101E1000FFF75AFA21464FF48370FFF755FA31461F
:101E20000020FFF751FA29464FF48370FFF74CFA70
:101E300049460020FFF748FA29464FF48370FFF720
:101E400043FA29464FF49370FFF73EFA29464FF4C0
:101E5000A570FFF739FA3946DC20FFF735FA294635
:101E60000020FFF731FA2946DC20FFF72DFA29463A
:101E70004FF4A570FFF728FA29464FF49370FFF747
:101E800023FA29464FF48370FFF71EFA85494FF471
:101E90009370FFF719FA21460020FFF715FA214643
:101EA0004FF4A570FFF710FA214640F25D10FFF7DE
:101EB0000BFA39464FF4C470FFF706FA29464FF47F
:101EC000A570FFF701FA29464FF4C470FFF7FCF93B
:101ED00031464FF4A570FFF7F7F941464FF4C4704F
:101EE000FFF7F2F921464FF4F770FFF7EDF93946A5
:101EF00040F20B20FFF7E8F929464FF48370FFF713
:101F0000E3F929464FF49370FFF7DEF929464FF4C1
:101F1000A570FFF7D9F921464FF4C470FFF7D4F943
:101F200051464FF4DC70FFF7CFF931464FF4C470DF
:101F3000FFF7CAF929464FF4DC70FFF7C5F93146BF
:101F40004FF4C470FFF7C0F949460020FFF7BCF911
:101F500041464FF4C470FFF7B7F959460020FFF728
:101F6000B3F929464FF49370FFF7AEF959460020B4
:101F7000FFF7AAF94FF082414FF49370FFF7A4F9ED
:101F800021464FF4A570FFF79FF9214640F25D10FE
:101F9000FFF79AF921464FF4C470FFF795F94FF017
:101FA0007C510020FFF790F929464FF4C470FFF7E9
:101FB0008BF931464FF4A570FFF786F941464FF48F
:101FC000C470FFF781F9214640F24B20FFF77CF9FE
:101FD000394640F20B20FFF777F929464FF483701A
:101FE000FFF772F929464FF49370FFF76DF9294610
:101FF0004FF4A570FFF768F9214640F20B20FFF778
:1020000063F951464FF4DC70FFF75EF931464FF447
:10201000C470FFF759F929464FF4DC70FFF754F903
:1020200031464FF4C470FFF74FF941464FF4DC706E
:10203000FFF74AF9214640F20B20FFF745F93946F0
:1020400040F24B20FFF740F929460020FFF73CF90A
:1020500029464FF49370FFF737F929464FF4A570DE
:10206000FFF732F931464FF49370FFF72DF90E491F
:102070004FF48370FFF728F921460020FFF724F979
:1020800021464FF4A570FFF71FF9214640F25D107D
:10209000FFF71AF939464FF4C47007E00000C0405A
:1020A0000000A0400000204100004041FFF70CF973
:1020B00029464FF4A570FFF707F929464FF4C4707D
:1020C000FFF702F931464FF4A570FFF7FDF84146DE
:1020D0004FF4C470FFF7F8F821464FF4F770FFF79C
:1020E000F3F8394640F20B20FFF7EEF829464FF49B
:1020F0008370FFF7E9F829464FF49370FFF7E4F88F
:1021000029464FF4A570FFF7DFF821464FF4C4705D
:10211000FFF7DAF851464FF4DC70FFF7D5F8314697
:102120004FF4C470FFF7D0F829464FF4DC70FFF786
:10213000CBF831464FF4C470FFF7C6F8594600207B
:10214000FFF7C2F841464FF4C470FFF7BDF8594697
:102150000020FFF7B9F821464FF4C470FFF7B4F838
:102160004FF082414FF49370FFF7AEF821464FF4E1
:10217000A570FFF7A9F8214640F25D10FFF7A4F81B
:1021800039464FF4C470FFF79FF829464FF4A57005
:10219000FFF79AF829464FF4C470FFF795F83146D7
:1021A0004FF4A570FFF790F841464FF4C470FFF765
:1021B0008BF821464FF4F770FFF786F8394640F266
:1021C0000B20FFF781F829464FF48370FFF77CF866
:1021D00029464FF49370FFF777F829464FF4A5701E
:1021E000FFF772F8214640F20B20FFF76DF83946F1
:1021F0004FF4DC70FFF768F849460020FFF764F8F9
:1022000029464FF4DC70FFF75FF831464FF4C47095
:10221000FFF75AF841464FF4DC70FFF755F82146B6
:1022200040F20B20FFF750F8394640F24B20FFF701
:102230004BF821464FF4A570FFF746F8214640F2CF
:102240005D10FFF741F839464FF4C470FFF73CF8D2
:1022500029464FF4A570FFF737F829464FF4C470AC
:10226000FFF732F831464FF4A570FFF72DF84146DD
:102270004FF4C470FFF728F821464FF4F770FFF7CA
:1022800023F8394640F20B20FFF71EF829464FF499
:102290008370FFF719F829464FF49370FFF714F88D
:1022A00029464FF4A570FFF70FF821464FF4C4708C
:1022B000FFF70AF851464FF4DC70FFF705F8314696
:1022C0004FF4C470FFF700F829464FF4DC70FEF7B6
:1022D000FBFF31464FF4C470FEF7F6FF594600206D
:1022E000FEF7F2FF41464FF4C470FEF7EDFF59468A
:1022F0000020FEF7E9FF21464FF4C470FEF7E4FF2B
:102300004FF082414FF49370FEF7DEFF21464FF409
:10231000A570FEF7D9FF214640F25D10FEF7D4FF0D
:1023200021464FF4C470FEF7CFFF31460020FEF780
:10233000CBFF29464FF4C470FEF7C6FF31464FF479
:10234000A570FEF7C1FF41464FF4C470FEF7BCFF15
:10235000214640F24B20FEF7B7FF394640F20B20F2
:10236000FEF7B2FF29464FF48370FEF7ADFF294612
:102370004FF49370FEF7A8FF29464FF4A570FEF7BF
:10238000A3FF214640F20B20FEF79EFF51464FF47B
:10239000DC70FEF799FF31464FF4C470FEF794FFEE
:1023A00029464FF4DC70FEF78FFF31464FF4C470BE
:1023B000FEF78AFF41464FF4DC70FEF785FF2146A9
:1023C00040F20B20FEF780FF394640F24B20FEF72B
:1023D0007BFF29460020FEF777FF29464FF4C470A3
:1023E000FEF772FF294640F20B20FEF76DFF3146E3
:1023F0004FF4F770FEF768FF734940F20B20FEF7C9
:1024000063FF21460020FEF75FFF21464FF4A570D1
:10241000FEF75AFF21464FF49370FEF755FF214611
:102420004FF48370FEF750FF21464FF4C470FEF75F
:102430004BFF21464FF48370FEF746FF21464FF4D1
:102440009370FEF741FF21464FF4A570FEF73CFF65
:10245000214640F25D10FEF737FF21464FF4C4706D
:10246000FEF732FF214640F25D10FEF72DFF2146B8
:102470004FF4A570FEF728FF21464FF49370FEF746
:1024800023FF21464FF48370FEF71EFF21464FF4D1
:102490009370FEF719FF21464FF4A570FEF714FF65
:1024A000214640F25D10FEF70FFF21464FF4A57064
:1024B000FEF70AFF21464FF49370FEF705FF214611
:1024C0004FF48370FEF700FF21464FF4C470FEF70F
:1024D000FBFE21464FF4A570FEF7F6FE21464FF4B1
:1024E0009370FEF7F1FE21464FF4A570FEF7ECFE67
:1024F000214640F25D10FEF7E7FE21464FF4C4701E
:10250000FEF7E2FE214640F25D10FEF7DDFE2146B9
:102510004FF4A570FEF7D8FE21464FF49370FEF7F6
:10252000D3FE21464FF4A570FEF7CEFE21464FF4B0
:102530009370FEF7C9FE21464FF4A570FEF7C4FE66
:10254000214640F25D10FEF7BFFE21464FF4A57014
:10255000FEF7BAFE21464FF49370FEF7B5FE214612
:102560004FF48370FEF7B0FE21464FF4C470FEF7BF
:10257000ABFE21464FF48370FEF7A6FE21464FF4D2
:102580009370FEF7A1FE21464FF4A570FEF79CFE66
:10259000214640F25D10FEF797FE21464FF4C470CD
:1025A000FEF792FE214640F25D10FEF78DFE2146B9
:1025B0004FF4A570FEF788FE21464FF49370FEF7A6
:1025C00083FEBDE8F88F00BF0000404108B502E07F
:1025D0000A2006F0F4FE00F041FD0028F8D0642047
:1025E00006F0EDFE00F036FD064B186004E0FEF745
:1025F0008DFE012006F0E3FE024B1B68DB78002B0A
:10260000F5D1F6E7B405002000B585B08DF80C00D3
:102610008DF80D100A230093022303AA78210348A2
:1026200004F0DCF905B05DF804FB00BF7011002078
:1026300008B501460020FFF7E7FF08BD08B50146D1
:102640004020FFF7E1FF08BD38B500250BE00E4B39
:1026500003EBC513185DFFF7F1FF0134A4B27F2C23
:10266000F5D90135ADB2072D0CD8A5F15000C0B297
:10267000FFF7DEFF0020FFF7DBFF1020FFF7D8FF9A
:102680000024ECE738BD00BFB805002008B50021E4
:1026900009E0084A02EBC112D05401339BB27F2BF0
:1026A000F7D9013189B2072901D80023F7E7FFF7ED
:1026B000CBFF08BDB805002008B50020FFF7E6FFF6
:1026C00008BD08B54FF4FA7002F07CFCAE20FFF7AD
:1026D000AFFF2020FFF7ACFF1020FFF7A9FFB020CD
:1026E000FFF7A6FF0020FFF7A3FF1020FFF7A0FFD2
:1026F000C820FFF79DFF4020FFF79AFF8120FFF7DA
:1027000097FFFF20FFF794FFA120FFF791FFA6207E
:10271000FFF78EFFA820FFF78BFF3F20FFF788FF12
:10272000A420FFF785FFD320FFF782FF0020FFF7EB
:102730007FFFD520FFF77CFFF020FFF779FFD9203E
:10274000FFF776FF2220FFF773FFDA20FFF770FF15
:102750001220FFF76DFFDB20FFF76AFF2020FFF755
:1027600067FF8D20FFF764FF1420FFF761FFAF20A4
:10277000FFF75EFFFFF7A0FF08BD000083B27F2BCD
:1027800035D8002933DB3F2931DCCAB10B4600299B
:1027900014DBDA10174B03EBC2131A5CD1F1000CF7
:1027A00001F007010CF0070C58BFCCF100014FF00D
:1027B000010C0CFA01F10A431A547047CB1DE8E7EB
:1027C0000B46002914DBDB100A4A02EBC31212F895
:1027D00000C04B4201F0070103F0070358BF594204
:1027E00001238B40DB435BB20CEA030313547047B5
:1027F000CB1DE8E7B80500202DE9F84F924682B2DC
:102800007F2A09D807468846002905DB3F2903DCD3
:10281000012B3CD0022B7ED0FFF716FFBDE8F88FCE
:10282000E81904EB080106EB46023C4B03EB4203BC
:102830005A5D224102F0010209B200B2FFF79EFF89
:102840000134E4B2072CEBD90135EDB2052D01D8E6
:102850000024F7E706373FB209F101095FFA89F969
:102860001AF80960002ED7D0203ED5D47C2F03DC87
:10287000C7F17F03052B08DC08F108080FFA88F878
:10288000C8F13F03072BC7DD00270025DEE74FF027
:102890000009E5E7E81904EB080189B201EBC6017C
:1028A00005EBC6031E4A02EB0912D25C224102F07C
:1028B000010209B200B2FFF761FF0134E4B2072C54
:1028C000E8D90135EDB2072D01D80024F7E701362C
:1028D000F6B2012E01D80025F5E708373FB20BF11B
:1028E000010B5FFA8BFB1AF80B30002B94D0B3F17D
:1028F000200991D47E2F03DCC7F17F03072B08DC6E
:1029000008F110080FFA88F8C8F13F030F2B83DD98
:1029100000270026DDE74FF0000BE4E768C200085F
:1029200078BC000810B500240AE0D320FFF780FE31
:102930002046FFF77DFE282002F044FB0134E4B27C
:102940003F2CF2D910BD000008B50F4B1B681A7858
:102950000E4B1B789A4205D10B4B1B681A780B4B18
:102960001A7008BDFFF7A8FE0A2006F028FD064BE6
:102970001B681B78032BEFD80223054A00210F2088
:10298000FFF73AFFE8E700BFB80900200000002089
:1029900090C4000830B583B0194D2B685A6A194CA1
:1029A0000023019300931849204600F089F9012380
:1029B000224614211920FFF71FFF2A680023126AFC
:1029C000019300931149204600F022FA0123224688
:1029D00023211920FFF710FF2B6859680A794B79DA
:1029E0008879C979019100900949204600F068F979
:1029F0000123224632211920FFF7FEFE03B030BD2D
:102A0000B8090020C0090020A0C40008B0C4000814
:102A1000C0C4000870B582B0184E336800245A69EB
:102A2000174D0194009423461649284600F0F0F90A
:102A300001232A4614211920FFF7DEFE33681A69A4
:102A40000194009423461049284600F0E1F901233F
:102A50002A4623211920FFF7CFFE3368DA68019454
:102A6000009423460949284600F0D2F901232A465A
:102A700032211920FFF7C0FE02B070BDB809002056
:102A8000C0090020D8C40008E8C40008F8C4000841
:102A900070B582B0194E33689A6853681268184C42
:102AA0000025019500951749204600F0B1F9012352
:102AB000224614210C20FFF79FFE33689A68D368E2
:102AC0009268019500951049204600F0A1F9012374
:102AD000224623210C20FFF78FFE00230193009351
:102AE0000A4A12780A49204600F0EAF801232246F1
:102AF00032212320FFF780FE02B070BDB80900200C
:102B0000C009002008C500081CC50008BC09002039
:102B100030C5000830B583B01E4B1B689C6900218E
:102B20002046FEF785FA38BB00231B4D0193009326
:102B300022461A49284600F06BF901232A4614213F
:102B40001920FFF759FE134B1B68DC690021204652
:102B5000FEF76EFAB8B900230F4D01930093224699
:102B60000F49284600F054F901232A46282119204C
:102B7000FFF742FE03B030BD01230A4A1421192099
:102B8000FFF73AFEDFE70123074A28211920FFF764
:102B900033FEEFE7B8090020C009002040C5000857
:102BA00064C5000850C5000874C5000808B502E0F7
:102BB0000A2006F004FC00F051FA0028F8D000F0DA
:102BC000DBFB1E4B18601DE00B460021197027E04F
:102BD000FFF7E0FE13E0FFF71DFF10E0FFF758FFDF
:102BE0000DE0FFF797FF0AE00023137007E00223D0
:102BF000134A10212520FFF7FFFDFFF793FE012068
:102C000006F0DDFBFFF7A0FE0C4B1A681378032BD0
:102C1000EDD80C490B780133DBB20B70642BD3D0A9
:102C20001378032BE0D801A151F823F0D12B000831
:102C3000D72B0008DD2B0008E32B0008B809002083
:102C400088C50008BC09002010B5021E03DB002463
:102C500022B1002018E052420124F9E730230B7022
:102C600000234B70012028E0144B83FB023CD31758
:102C7000C3EBAC039C4603EB8303A2EB4303DBB241
:102C800030330B5462460130002AEDD174B12D234C
:102C90000B5401300AE011F802C0831A013B11F80D
:102CA00003E001F802E001F803C0013200EBD07349
:102CB000B2EB630FEFDB00230B5410BD6766666653
:102CC0002DE9F04385B005460E46174698464FF06D
:102CD000000929E0B9F1030F03D8DFE809F00A047D
:102CE0000608002006E0404604E00C9802E00D983B
:102CF00000E0384601A9FFF7A7FF0246002109E0DE
:102D0000284601F110036B4413F80C3C00F8013B1A
:102D1000013105469142F3DB09F101090BE001366F
:102D2000284600F8014B0546347834B1252CF6D1FD
:102D30007378642BCED00236F6E700232B7005B0F3
:102D4000BDE8F083F0B583B004460E46FEF7A2F965
:102D50000546FDF785FF01462046FDF7CBFE2A49D3
:102D6000FDF7D2FFFDF738FB0022284BFDF7D6F91F
:102D7000FDF724FE07460DBB302333702E237370FE
:102D800001A9FFF761FF01A93846FFF75DFF0128A0
:102D900001D002240BE03023B370032407E005F1D7
:102DA00008036B4413F8043C335501350134854264
:102DB000F5DB00233355204603B0F0BD31462846ED
:102DC000FFF742FF0546441C2E23335401A9384621
:102DD000FFF73AFF01A93846FFF736FF012801D077
:102DE00000230BE030233355AC1CF9E703F1080254
:102DF0006A4412F8042C3255013301348342F5DB66
:102E000000233355D7E700BF0000C8420000E03F71
:102E10002DE9F04184B004460D4616461F464FF09A
:102E2000000807E06B78252B0CD0662B0ED00235FE
:102E300004F8013B287860B32528F3D0013504F865
:102E4000010BF7E704F8013B0235F3E7B8F1030F94
:102E500003D8DFE808F00A040608002006E0384638
:102E600004E00A9802E00B9800E0304601A9FFF761
:102E700069FF002107E001F110036B4413F80C3CDB
:102E800004F8013B01318142F5DB08F1010802350C
:102E9000D0E70023237004B0BDE8F08110B50446EC
:102EA00000F052FF0299204600F0E4FF10BD000040
:102EB00038B504460D461046FDF77CFA02460B462F
:102EC000FDF72CF90022094BFDF708FC0022084B06
:102ED000FDF724F90022074BFDF700FC02460B46E4
:102EE0002946204600F072FF38BD00BF00806640D2
:102EF0000000E03F0000344008B54FF4004138487E
:102F000003F09CF90246B0FA80F04009354B187086
:102F1000354B1B78B3B135490B8801339BB20B801D
:102F2000142B0FD9324B1B783BB12E494B7883F0D1
:102F300001034B702E4B0021197000232A490B709E
:102F40002A490B802B4B1B78012B0BD0022B23D053
:102F50001BB91AB90133274A137008BD254B00224B
:102F60001A70FAE7A2B9204A127852B11F4A1288A1
:102F7000142A06D8204A012111701D4A002111701F
:102F800002E01D4A0021117001331A4A1370E4E770
:102F9000184B00221A70E0E718490B8801339BB2E6
:102FA0000B80002AD9D0144A12785AB9642B05D95B
:102FB0000C4A937883F00103937008E00C4B0122D4
:102FC0001A7004E0074AD37883F00103D37000231A
:102FD0000A4A1380074A1370034B01221A70BCE798
:102FE000000801400C0A0020000A0020FE09002011
:102FF000FC090020FB090020FA090020F809002044
:10300000114B1A78114B1A70012304E00F4A00216A
:10301000D1540133DBB2032B0DD80D4AD15C0A4ADF
:10302000D25C9142F2D0094A0121D1541A4411795B
:1030300001311171EDE7044A5178054B59709178CF
:103040009970D278DA7070470C0A0020040A0020C8
:10305000F409002000487047040A002008B500F079
:10306000ADFC08BDD0B582B0FFF72BFB0A4800F0DD
:103070007FFC0026094F0A4C0823009332463B464A
:103080002046FFF70BFF0C23009332463B462046B9
:10309000FFF704FF02B0D0BDC4110020000049407A
:1030A00078120020000000002DE9F04182B00024D9
:1030B0003B4D22462B463B4800F046FEFA23009348
:1030C00035A3D3E900232046294600F0E3FAFF2286
:1030D0000021084600F010FEFFF7C4FF02E00A20BE
:1030E00006F06DF9FFF7BAFF0028F8D0FFF7B6FF3A
:1030F00020B900273C463E463D4623E026A7D7E9B7
:1031000000670024264D4FF07D08CDF80080324640
:103110003B462046294600F0BDFA0A2006F04FF94A
:10312000CDF8008032463B462046294600F0B2FAF0
:10313000DFE7013464B2642C01DD6FF063040A2020
:1031400006F03DF9FFF7D8FEFFF75AFF0137FFB24F
:10315000632F00D9002785EAE570A0EBE57086EAC9
:10316000E671A1EBE67184EAE472A2EBE472D2B2FA
:10317000C9B2C0B200F0C0FD01356DB2642D01DDF1
:103180006FF06305731C5EB2642ED2DD6FF06306D0
:10319000CFE700BFAFF300807B14AE47E17A943FE6
:1031A0000040A740C012002000283CD02DE9F84381
:1031B00088460646002938D003782D2B05D02B2BC6
:1031C00007D04FF0010900241CE001364FF0FF3911
:1031D000F9E701364FF00109F5E72046FDF7FCF865
:1031E0000022134BFDF750F904460D46A7F13000BD
:1031F000FDF7E0F822462B46FCF790FFFDF726FC92
:10320000044601363778A7F13003DBB2092BE4D945
:103210004846FDF725FD2146FDF776FDC8F800007C
:103220000120BDE8F883002070470020F9E700BFC7
:103230000000244000B583B0084601A9FFF7B4FFA1
:1032400010B1034B019A9A6103B05DF804FB00BF13
:10325000100A002000B583B0084601A9FFF7A4FFBB
:1032600010B1034B019ADA6103B05DF804FB00BFB3
:10327000100A0020054A516901F10041044B196010
:1032800011695960D2689A60704700BF100A002027
:10329000080000200B4B5B685A79182A0DD85B7820
:1032A0001BB1084A137801331370064B1B78032BAC
:1032B00006D9044B00221A707047024B04221A7080
:1032C000704700BF100A002070B502E00A2006F027
:1032D00076F8FFF7C3FE0028F8D01F49002000F061
:1032E000F5FD1E49012000F0F1FD1D4C0023E361B6
:1032F000A361FFF7AFFE606000F0A4F9A0600024B6
:1033000020E0C4F1B405EDB2164E2A46082130463D
:10331000FFF7CEFD2A460C213046FFF7C9FD1248C3
:1033200000F052FBFFF7A6FF104B1A68104900206F
:1033300000F07CF804220F49012000F077F80A2001
:1033400006F03DF8FFF7A6FF00F0C2F80134E4B242
:10335000B52CD6D10024D4E7353200085532000808
:10336000100A0020781200201C0A0020040000200F
:10337000080000201400002000487047100A0020B8
:103380000268254B9A4200D070472DE9F04104466F
:10339000037F012B01D0BDE8F081002104F0E6FDA0
:1033A00001301E4F38600421204604F0DFFD01305B
:1033B000FDF752FC05461A4B1860236800265E6232
:1033C000D7F800804046FCF7E5FF02460B4610A107
:1033D000D1E90001FDF782F9124FFDF717FB786282
:1033E0004046FDF739FC01462846FDF741FD0E49F0
:1033F000FDF78AFC386223686FF006021A613146D5
:10340000204605F07BF90421204605F077F9C2E754
:103410000000000080842E41002C01403C0A002066
:10342000380A0020100A00200000C842F8B50646FD
:103430000F461446531E092B02D800239C460EE06B
:1034400011210E4800F020F8F7E70CF1010257F8BF
:1034500023E00B4D45F82CE001335FFA82FCA342D8
:10346000F3D3A20092B20649304600F063FD042275
:103470000449304600F05EFDF8BD00BF94C5000869
:10348000400A00202400002000B583B007F06AF84D
:1034900000221146FF2000F02FFC044B0193012273
:1034A00001A90020FFF7C2FF00BFFDE7003C1C465A
:1034B00010B5054C204602F003F8042203492046CB
:1034C00001F0B6FE10BD00BF08110020C40A0020A4
:1034D0002DE9704304225649564801F0A9FE564A88
:1034E00013780133DBB21370082B02D91346002284
:1034F0001A700023032B11D84F4A12784C4931F827
:10350000131002EBC3024D4820F8121003F108001B
:103510004B4A22F810100133DBB2EBE7002451E0F4
:10352000474D2868FCF758FF80468946434E36F8D9
:103530001400FCF73FFF02460B4640464946FCF7A5
:10354000EDFDFDF783FA28606868FCF745FF8046CB
:10355000894604F1080336F81300FCF72BFF0246F6
:103560000B4640464946FCF7D9FDFDF76FFA686007
:10357000A868FCF731FF8046894604F1100336F84D
:103580001300FCF717FF02460B4640464946FCF77E
:10359000C5FDFDF75BFAA860E868FCF71DFF8046F3
:1035A000894604F1180336F81300FCF703FF0246BE
:1035B0000B4640464946FCF7B1FDFDF747FAE86087
:1035C0000134E4B2072CABD91D4C2068FCF704FF92
:1035D00015A3D3E90023FCF757FFFDF737FA206066
:1035E0006068FCF7F9FE10A3D3E90023FCF74CFF59
:1035F000FDF72CFA6060A068FCF7EEFE0AA3D3E9A1
:103600000023FCF741FFFDF721FAA060E068FCF71A
:10361000E3FE05A3D3E90023FCF736FFFDF716FA16
:10362000E060BDE8708300BFB4D934E70C681A3F8E
:10363000C40A002008110020680A0020840A002023
:103640006C0A0020004870476C0A002008B50C2165
:10365000014804F0E5FF08BDC012002070B5144613
:103660001D46064E02460B46304600F06DFB2246D4
:103670002B460C21304600F0A9FB70BDC012002083
:1036800008B5002200230C21014800F09FFB08BD73
:10369000C012002008B5FFF7E1FF029805F08FFE89
:1036A000FFF7EEFF08BD000000B583B006F05AFF3B
:1036B00000221146FF2000F01FFB044B0193012262
:1036C00001A90020FFF7B2FE00BFFDE7003C1C4649
:1036D00070B58AB005460E4628220021684607F0DC
:1036E0001FFC8DF800503146194B53F8250002F0AD
:1036F000C2F858B308AB01AA3146154850F8250066
:1037000002F004F8002405E043211248FFF7CCFF43
:103710000134E4B2104B5B5DA342E4D905EB8503B1
:1037200003EB830323440D4A52F82320019B9A4262
:10373000EED105EB850303EB83032344084A52F8DB
:103740002330002BE0D068469847E1E70AB070BD0F
:103750005C0C0020C0C50008640C0020940B002005
:10376000CC0A002038B50546002401E00134E4B25B
:10377000012C09D8054B53F82430AB42F6D1002177
:103780002046FFF7A5FFF1E738BD00BF5C0C002025
:1037900038B50546002401E00134E4B2012C09D813
:1037A000054B53F82430AB42F6D101212046FFF7F8
:1037B0008FFFF1E738BD00BF5C0C00202DE9F04120
:1037C00004460F460168C068FDF796F90546E060BB
:1037D0006168FDF791F901462846FDF749FB064669
:1037E0002061D4F8088041463846FDF783F9014648
:1037F0003046FDF789FA01464046FDF77DF9074658
:10380000A06031464FF07E50FDF774F9014628461E
:10381000FDF77AFAE0603846BDE8F08100B587B080
:1038200002468DF817104FF4FA73029301230193A7
:103830000DF117010091D0210348006803F08AF9C7
:1038400007B05DF804FB00BFA00C002010B50446D3
:1038500080216B20FFF7E2FF642001F0B3FB002121
:103860006B20FFF7DBFF2388B3F57A7F38D34FF463
:103870007A7323802088FDF7F3F901461B48FDF792
:10388000F7FA4FF07E51FDF735F9FDF729FCC1B28B
:103890001920FFF7C3FFA1793820FFF7BFFFA178F8
:1038A0001A20FFF7BBFFE1781B20FFF7B7FF217954
:1038B0001C20FFF7B3FF61792320FFF7AFFF617989
:1038C00001B14021A37913F0010F01D141F00801AA
:1038D0006A20FFF7A3FF01216B20FFF79FFF10BDB8
:1038E000032BC7D804232380C4E700BF00007A4419
:1038F00000B587B002464FF4FA7302930123019397
:103900000DF117010091D0210448006803F0D4F9AB
:103910009DF8170007B05DF804FB00BFA00C002065
:1039200070B50025002615E04720FFF7E1FF0402EF
:1039300024B24820FFF7DCFF00B22043FDF790F9E6
:1039400001463046FDF7D8F806460A2001F03AFB5A
:103950000135ADB2B5F5FA7FE6D303493046FDF740
:1039600087FA024B186070BD0000FA439C0C0020DF
:1039700000B583B00F4B18606423ADF80030062308
:103980008DF8023000238DF803308DF804308DF867
:1039900005308DF806306846FFF758FF322001F0F9
:1039A00011FBFFF7BDFF044B01221A7003B05DF855
:1039B00004FB00BFA00C0020980C0020014B1878DD
:1039C000704700BF980C00202DE9F04F87B00446E7
:1039D000B34B1B688BB1B34BB34D1D60B3485860FC
:1039E000002199604FF07E52DA60B14B1D60586043
:1039F0009960DA60AA4B00221A603B20FFF778FF3B
:103A00000502ADB23C20FFF773FF284400B2FDF77A
:103A100027F90146FDF770F84FF06051FDF774F992
:103A200005463D20FFF764FF0602B6B23E20FFF7D1
:103A30005FFF304400B2FDF713F90146FDF75CF873
:103A40004FF06051FDF760F906463F20FFF750FF49
:103A50000702BFB24020FFF74BFF384400B2FDF72A
:103A6000FFF80146FDF748F84FF06051FDF74CF9BB
:103A700007464320FFF73CFF4FEA00281FFA88F86B
:103A80004420FFF735FF404400B2FDF7E9F88949CB
:103A9000FDF73AF98849FDF737F980464520FFF7E9
:103AA00027FF4FEA00291FFA89F94620FFF720FF78
:103AB000484400B2FDF7D4F87E49FDF725F97E4968
:103AC000FDF722F981464720FFF712FF4FEA002A4F
:103AD0001FFA8AFA4820FFF70BFF82441FFA8AFA7E
:103AE000764B1868FDF7D6FA80B2AAEB000000B258
:103AF000FDF7B6F86F49FDF707F96F49FDF704F9CF
:103B0000059029462846FDF7FFF8824631463046A3
:103B1000FDF7FAF801465046FCF7EEFF82463946BB
:103B20003846FDF7F1F801465046FCF7E5FFFCF793
:103B300053FC07F097FCFCF789FFFCF74DFC4FF0B6
:103B400033325F4BFCF730FF002800F09C80DFF839
:103B500074A1DFF874B1DBF800104846FCF7CCFF25
:103B60008146CBF80000DFF864B1DBF80010404676
:103B7000FCF7C2FF8046CBF800005046FCF72CFC57
:103B8000CDE900013846FCF727FCCDE902013046BB
:103B9000FCF722FCDDE9022307F062FC02460B463B
:103BA000DDE90001FCF770FC39A3D3E90023FCF741
:103BB00095FD0022464BFCF767FC06460F46514632
:103BC0004FF07E50FCF796FF824601464846FDF7CF
:103BD0009BF8FCF701FC02460B4630463946FCF7E1
:103BE0009DFAFCF733FF81462846FCF7F5FBDDE93B
:103BF000022307F035FC02460B46DDE90001FCF725
:103C000043FC23A3D3E90023FCF768FD0022304BDB
:103C1000FCF73AFC06460F4651464046FDF774F85D
:103C2000FCF7DAFB02460B4630463946FCF776FADB
:103C3000FCF70CFF00F1004549461A48FFF7BEFDAE
:103C4000606029461A48FFF7B9FDA0602068FCF7BC
:103C5000C3FB06460F464FF07C510598FDF754F81C
:103C6000FCF7BAFB0CA3D3E90023FCF757FA024692
:103C70000B4630463946FCF751FAFCF7E7FE206068
:103C800007B0BDE8F08F4FF07E5A62E7AFF30080D7
:103C900000000040FB210940FCA9F1D24D62403FE9
:103CA00028000020840C00206F12833ACDCCCC3D3C
:103CB000700C00200AD7233C03FA8E3C9C0C002099
:103CC0003333F33FCDCC4C3F6C0C0020680C00200C
:103CD0000080664010B5074C0021204604F0A0FC8F
:103CE0000421204604F09CFC0821204604F098FCA6
:103CF00010BD00BFC0120020024B1B6859639863BF
:103D0000DA637047C012002000B583B006F02AFCC9
:103D100000221146FF20FFF7EFFF044B0193012221
:103D200001A90020FFF782FB00BFFDE7003C1C4615
:103D300070B504460E46154604F0B2F8E6606560BC
:103D4000204604F021FA70BD2DE9F84305461AA17A
:103D5000D1E90001FCF7C2FC2B68B3F1804F26D0FB
:103D60000026174F0022174BFCF78EFB8046894632
:103D700032463B46FCF7B2FC07F08AFC06460F468B
:103D800002460B4640464946FCF7A8FCFCF73EFEBF
:103D900084B230463946FCF739FE82B2013A611EE0
:103DA00092B289B22846FFF7C3FFBDE8F883002628
:103DB000054FD7E7AFF300800000000080842E415C
:103DC0000000F040000052400000F041F8B5074606
:103DD0000E4614461D460022002320462946FCF7C5
:103DE000D9FDA0B10022214B20462946FCF7C8FD91
:103DF00068B186B9F8680130FCF7CCFA22462B4648
:103E0000FCF742FB3C68FCF701FE6063F8BD1E2135
:103E10001748FFF779FF042E0ED0082E19D0F86846
:103E20000130FCF7B7FA22462B46FCF72DFB3C6825
:103E3000FCF7ECFD2064E9E7F8680130FCF7AAFA2A
:103E400022462B46FCF720FB3C68FCF7DFFDA06315
:103E5000DCE7F8680130FCF79DFA22462B46FCF7B8
:103E600013FB3C68FCF7D2FDE063CFE70000F03FB6
:103E7000ECC5000808B504F0D3FB08BD00B583B05D
:103E800006F070FB00221146FF20FFF735FF044BC0
:103E90000193012201A90020FFF7C8FA00BFFDE746
:103EA000003C1C4608B5074B53F820302BB90228BC
:103EB00002D0044B43F8201008BD0F210248FFF741
:103EC000DDFF00BFB40C002018C6000810B5154B6C
:103ED00053F82030D3B9044602281FD0124B53F8B0
:103EE0002000B8B10F4B43F824104FF480720F49F3
:103EF00001EB042105F098F90B4B53F82430DB6BF0
:103F00001A68136823F00403136010BD14210848D5
:103F1000FFF7B4FF15210648FFF7B0FF014B43F848
:103F20002010F2E7A40C0020B40C0020C40C0020E8
:103F300018C6000808B5064B53F8200020B14FF012
:103F4000FF3304F064FE08BD1E210248FFF796FF10
:103F5000B40C002018C60008F8B505460F4600242A
:103F600014E0144E06EB04263A460021304606F0D3
:103F7000D7FF4FF480723146284605F055F9EB6BB8
:103F80001A68136823F0040313600134032C10DC57
:103F9000094B53F82430AB42F7D1084B53F8243087
:103FA000002BDED03A46034901EB0421E0B29847EA
:103FB000D7E7F8BDC40C0020B40C0020A40C0020EE
:103FC00010B50446002300E00133032B14DC0B4A38
:103FD00052F82320002AF7D0A242F5D14FF4807284
:103FE000074901EB0321204605F01EF9E36B1A682F
:103FF000136823F00403136010BD00BFB40C00204D
:10400000C40C002000B585B00023019302930393F4
:104010002548264A02604FF48072826001220273B2
:1040200003754FF46022C26143600423036101F011
:10403000C3F948BB00230193012302930523039393
:1040400001A9194801F010F808BB012301930223CC
:10405000029301A9144801F007F8D8B90423019389
:104060000323029301A9104800F0FEFFA8B905231D
:104070000193042302930DEB03010B4800F0F4FFBE
:1040800070B905B05DF804FB00F039FAD2E700F032
:1040900036FADAE700F033FAE0E700F030FAE6E764
:1040A00000F02DFAEDE700BF0811002000240140C8
:1040B00010B586B00023029303930493059302681E
:1040C0001E4B9A4201D006B010BD044603F56C4366
:1040D0009A6942F400729A619A6902F4007200923D
:1040E000009A9A6942F004029A619B6903F0040302
:1040F0000193019B332302930323039302A91048E6
:1041000001F010FF0F48104B0360002343608360F1
:104110008022C2604FF4807202614FF4806242617B
:1041200020228261C36101F07DFD18B9054B236235
:104130005C62C8E700F0E3F9F8E700BF0024014043
:1041400000080140C41000200800024008B50D48D6
:104150000D4B03600423436000238360C3604FF46E
:10416000A02202614FF48012426103764376837687
:10417000C3760377437701F023FA00B908BD00F056
:10418000BEF9FBE7381100200064004010B586B08E
:104190000023029303930493059302681E4B9A42F3
:1041A00001D006B010BD03F5D633DA6942F00072D3
:1041B000DA61DA6902F000720092009A9A6942F0BC
:1041C00004029A619B6903F004030193019B4FF47D
:1041D00000630293114C02A9204601F0A3FE4FF4A4
:1041E00080530293022303930323059302A92046DD
:1041F00001F098FE00220521142001F0DBFC1420C0
:1042000001F0E8FC00220521152001F0D3FC152067
:1042100001F0E0FCC5E700BF006400400008014079
:1042200000B583B01A4B5A6942F001025A615B69CA
:1042300003F001030193019B002205210B2001F0F3
:10424000B9FC0B2001F0C6FC002205210E2001F074
:10425000B1FC0E2001F0BEFC002205210F2001F070
:10426000A9FC0F2001F0B6FC00220521102001F06E
:10427000A1FC102001F0AEFC00220521112001F06C
:1042800099FC112001F0A6FC03B05DF804FB00BF0F
:104290000010024008B50E4A00210E4805F030F823
:1042A0000D4B18600D4A00210D4805F029F80D4B03
:1042B00018600D4A00210D4805F022F80C4B1860DB
:1042C0000C4A00210C4805F01BF80C4B186008BD87
:1042D000E8C60008AD2B00086C110020C4C6000819
:1042E000A930000868110020A0C60008C9320008E3
:1042F000641100207CC60008CD2500086011002054
:104300002DE9F04188B000240494059406940794A4
:10431000294B9A6942F010029A619A6902F01002E0
:104320000092009A9A6942F020029A619A6902F01A
:1043300020020192019A9A6942F004029A619A69F4
:1043400002F004020292029A9A6942F008029A610B
:104350009B6903F008030393039BDFF8608001224D
:104360004FF40051404601F070FF154E0122182114
:10437000304601F06AFF4FF4005304930125059580
:1043800006940227079704A9404601F0CBFD4FF49D
:10439000004304930594069504A90A4801F0C2FD60
:1043A0001823049305950694079704A9304601F055
:1043B000B9FD08B0BDE8F0810010024000100140D6
:1043C000000C01400008014008B50B480B4B03608E
:1043D0000B4B436000238360C3604FF48042026153
:1043E00043618361C361036202F01AFA00B908BD38
:1043F00000F085F8FBE700BFC41100200054004026
:10440000801A060008B50B480B4B03600B4B43604A
:1044100000238360C3604FF4804202614361836183
:10442000C361036202F0FCF900B908BD00F067F84F
:10443000FBE700BF7011002000580040801A060002
:1044400010B588B00023049305930693079303687F
:10445000224A934204D0224A93421FD008B010BD92
:10446000204CA36943F00803A361A36903F0080388
:104470000093009BC0230493122305930323079307
:1044800004A9194801F04EFDE36943F40013E36108
:10449000E36903F400130193019BDFE7114CA36967
:1044A00043F00803A361A36903F008030293029B8E
:1044B0004FF440630493122305930323079304A945
:1044C000094801F02FFDE36943F48003E361E369E8
:1044D00003F480030393039BC0E700BF0054004034
:1044E0000058004000100240000C014008B503686D
:1044F000B3F1804F00D008BD00F052FDFBE772B66B
:10450000FEE700B595B0282200210DEB020006F071
:1045100007FD0023059306930793089309930193DE
:1045200002930393049309230A934FF480330B936C
:1045300001220E9210920222119212934FF4E01374
:1045400013930AA802F082FDE0B90F23059302211C
:104550000691002307934FF480620892099305A8FF
:1045600002F0A6FF80B9032301934FF40073029376
:104570004FF40043039301A803F094F830B915B049
:104580005DF804FBFFF7BBFFFFF7B9FFFFF7B7FFCD
:1045900008B500F0F3FCFFF7B4FFFFF7B1FEFFF73B
:1045A0003FFEFFF72FFDFFF70FFFFFF72BFF00F098
:1045B000A3FA00F0A9FBFFF7C9FD00F013FB00F020
:1045C00091F900F0BBFB00F029F8FFF73FF8FFF787
:1045D00081FBFEF76DFF0E490020FFF763FC0D49DC
:1045E0000120FFF75FFC0C4C0021204604F008F985
:1045F0000421204604F004F900221146FF20FFF7B1
:104600007BFB04F04FFEFFF745FE04F05DFEFEE786
:10461000A8140020601400200813002000B583B007
:104620000023ADF804308DF8063000931C481D4B74
:1046300003604FF0FF3343604FF48073836003F0F7
:10464000DDFA18BB05238DF8043020238DF80530E2
:1046500052238DF80630012201A9114803F0E7F931
:10466000B8B904238DF8003005238DF801302023DC
:104670008DF8023025238DF8033001226946084861
:1046800003F036FA40B903B05DF804FBFFF737FFDB
:10469000D8E7FFF734FFE4E7FFF731FFF3E700BFA8
:1046A000181200200028004002680C4B9A4200D0EB
:1046B000704700B583B002F0ADFC094BDA6942F0F7
:1046C0000062DA61DB6903F000630193019B054B33
:1046D0000122C3F83C2403B05DF804FB002800402D
:1046E000001002400000424200B583B0114B9A69AD
:1046F00042F001029A619A6902F001020092009A66
:10470000DA6942F08052DA61DB6903F08053019389
:10471000019B00220F216FF0010001F04BFA064AC5
:10472000536823F0E06343F00073536003B05DF817
:1047300004FB00BF001002400000014030B589B00A
:104740000446224BDA6942F00102DA61DB6903F0C8
:1047500001030193019B02A903A802F085FF069BB8
:10476000D3B902F061FF0346194AA2FB03239B0C55
:10477000013B18484FF08042026040F2E732C260CD
:104780004360002303618360836103F0FDFC054601
:1047900030B1284609B030BD02F046FF4300E3E7E0
:1047A0000C4803F0ADFB05460028F2D11C2001F0B7
:1047B00011FA0F2C01D90125EBE7002221461C201C
:1047C00001F0F8F9044B1C60E3E700BF0010024061
:1047D00083DE1B432C12002034000020FEE7FEE79E
:1047E000FEE7FEE7FEE7704708B5024801F0F8FA79
:1047F00008BD00BFC410002008B5024801F0F0FA5F
:1048000008BD00BFD813002008B5024801F0E8FA3F
:1048100008BD00BF1C14002008B5024801F0E0FAF2
:1048200008BD00BF9413002008B5024801F0D8FA73
:1048300008BD00BF5013002008B5024801F039F848
:1048400008BD00BF3811002008B5024801F031F85A
:1048500008BD00BF3811002008B5024803F0A2FBD4
:1048600008BD00BF0813002008B5024803F09AFBFA
:1048700008BD00BF2C12002008B5024804F0E4FA7D
:1048800008BD00BFA814002008B5024804F0DCFAF7
:1048900008BD00BF6014002010B503460C4A0D4946
:1048A0000D48006840B10C4800680344521A934216
:1048B00006D8094A136010BD0748084C0460F2E7A7
:1048C00006F0B4FB0C2303604FF0FF30F3E700BFAA
:1048D000005000200004000074120020D83700208F
:1048E0007047000000B58BB0002306930793089330
:1048F000099304930593009301930293039326482D
:10490000264A02604722426083604FF6FF72C2600F
:1049100003614361836103F037FC50BB4FF4805364
:10492000069306A91C4803F0EDFD28BB1A4803F0C6
:1049300083FC20BB00230493059304A9164804F0CC
:1049400003F8F8B900220092012301930292039226
:104950006946114803F064FDB8B90223009301933E
:10496000042269460C4803F05BFD88B90BB05DF882
:1049700004FBFFF7C4FDD1E7FFF7C1FDD6E7FFF762
:10498000BEFDD7E7FFF7BBFDDCE7FFF7B8FDE4E7C7
:10499000FFF7B5FDEAE700BF08130020002C014037
:1049A00000B589B000230493059306930793036829
:1049B000224A934208D0224A934228D0214A934265
:1049C00030D009B05DF804FB1F4B9A6942F40062D5
:1049D0009A619A6902F400620092009A9A6942F020
:1049E00004029A619B6903F004030193019B4FF455
:1049F0008073049304A9154801F094FA002205215C
:104A00001B2001F0D7F81B2001F0E4F8D9E70E4B8A
:104A1000DA6942F00202DA61DB6903F00203029311
:104A2000029BCEE7084BDA6942F00402DA61DB69E7
:104A300003F004030393039BC3E700BF002C014072
:104A4000000400400008004000100240000801403F
:104A500010B588B000230493059306930793036869
:104A6000204A934204D0204A934226D008B010BD79
:104A70001E4B9A6942F004029A619A6902F004029C
:104A80000192019A9A6942F008029A619B6903F0C7
:104A900008030293029BC023049302240594079405
:104AA00004A9134801F03EFA0323049305940794E4
:104AB00004A9104801F036FAD8E70C4B9A6942F085
:104AC00008029A619B6903F008030393039B4FF468
:104AD0004073049302230593079304A9054801F04A
:104AE00021FAC3E700040040000800400010024023
:104AF00000080140000C014000B58FB000230A936C
:104B00000B930C930D9308930993019302930393D2
:104B100004930593069307933048314A0260472275
:104B20004260836042F20F72C2600361836103F0EE
:104B30002BFB002839D14FF480530A930AA9274848
:104B400003F0E0FC002833D1244803F049FB00289F
:104B500031D100230893099308A9204803F0F4FEFB
:104B600060BB60230193002202920392059201A987
:104B70001A4803F0BBFB20BB04220DEB02011748CF
:104B800003F0B4FB00BB082201A9144803F0AEFBFC
:104B9000E8B90C2201A9114803F0A8FBD0B90F48CD
:104BA000FFF756FF0FB05DF804FBFFF7A8FCC2E764
:104BB000FFF7A5FCC8E7FFF7A2FCCAE7FFF79FFCD9
:104BC000CFE7FFF79CFCD7E7FFF799FCDBE7FFF7A0
:104BD00096FCDEE7FFF793FCE1E700BFC012002080
:104BE0000004004000B58FB000230A930B930C9390
:104BF0000D930893099301930293039304930593F0
:104C0000069307932548264A0260436083604FF667
:104C1000FF72C2600361836103F0B6FA58BB4FF4C0
:104C200080530A930AA91D4803F06CFC30BB1B4853
:104C300003F0D6FA28BB00230893099308A9174864
:104C400003F082FE00BB60230193002302930393D1
:104C50000593082201A9114803F048FBB8B90C22BA
:104C600001A90E4803F042FBA0B90C48FFF7F0FE83
:104C70000FB05DF804FBFFF742FCD0E7FFF73FFC05
:104C8000D5E7FFF73CFCD6E7FFF739FCDBE7FFF79A
:104C900036FCE4E7FFF733FCE7E700BF78120020BB
:104CA0000008004008B50368134A934206D0134A2F
:104CB000934212D0124A934216D008BD02F56442C4
:104CC000936923F4006393614FF480710D4801F000
:104CD00037FA1B2000F08CFFEFE702F50332D369AF
:104CE00023F00203D361E8E702F50232D36923F02F
:104CF0000403D361E1E700BF002C01400004004041
:104D0000000800400008014008B50A480A4B03604B
:104D10004FF4E133436000238360C36003610C22DE
:104D200042618361C36103F042FF00B908BDFFF730
:104D3000E6FBFBE7A81400200038014008B50A484C
:104D40000A4B03604FF4E133436000238360C36088
:104D500003610C2242618361C36103F028FF00B943
:104D600008BDFFF7CCFBFBE76014002000440040C7
:104D700070B588B004460023049305930693079307
:104D800003685F4A934204D05E4A93425DD008B004
:104D900070BD5D4B9A6942F480429A619A6902F44F
:104DA00080420092009A9A6942F004029A619B69DB
:104DB00003F004030193019B4FF400730493022357
:104DC000059303230793514E04A9304601F0AAF836
:104DD0004FF48063049300250595069504A9304699
:104DE00001F0A0F84A484B4B036045608560802382
:104DF000C360056145618561C56100F013FFF0B9CD
:104E0000434BE3635C624448444B036010234360BC
:104E1000002383608022C260036143618361C361B8
:104E200000F000FF70B93C4BA3635C6200220521D7
:104E3000252000F0BFFE252000F0CCFEA7E7FFF7FD
:104E40005EFBDDE7FFF75BFBEDE72F4BDA6942F432
:104E50000032DA61DA6902F400320292029A9A6947
:104E600042F004029A619B6903F004030393039BDD
:104E7000042304930223059303230793234E04A9D9
:104E8000304601F04FF80823049300250595069558
:104E900004A9304601F046F82148224B03604560E2
:104EA00085608023C360056145618561C56100F04F
:104EB000B9FEF0B91A4BE3635C621B481B4B0360FD
:104EC00010234360002383608022C260036143613A
:104ED0008361C36100F0A6FE70B9134BA3635C62EB
:104EE00000220521262000F065FE262000F072FE3B
:104EF0004DE7FFF704FBDDE7FFF701FBEDE700BF40
:104F00000038014000440040001002400008014009
:104F10001C14002058000240D81300204400024016
:104F2000941300206C0002405013002080000240C7
:104F3000FFF7D6FC0B480C490C4A002302E0D4587A
:104F4000C4500433C4188C42F9D3094A094C0023D5
:104F500001E013600432A242FBD306F06DF8FFF7C4
:104F600017FB70470000002098050020E4C70008E8
:104F700098050020D4370020FEE7000008B5074A56
:104F8000136843F010031360032000F001FE0F20AC
:104F9000FFF7D4FBFFF7A8FB002008BD002002406C
:104FA000034A1168034B1B780B441360704700BF22
:104FB000F014002030000020014B1868704700BF3B
:104FC000F014002038B50446FFF7F6FF0546B4F1AB
:104FD000FF3F02D0044B1B781C44FFF7EDFF401B42
:104FE000A042FAD338BD00BF30000020704708B59A
:104FF000436A9A6A12F0500F1ED19A6A42F4007204
:105000009A621A68926802F46022B2F5602F03D0A7
:105010001846FFF7EBFF08BD1A7B002AF8D19A6A01
:1050200022F480729A629A6A12F4805FF0D19A6ACE
:1050300042F001029A62EBE71B6A1B6B9847EAE7B2
:10504000704708B5406AFFF7FBFF08BD704708B519
:10505000406A836A43F040038362C36A43F00403F7
:10506000C362FFF7F3FF08BD30B482B000220192A3
:1050700090F82420012A00F08F800346012280F856
:1050800024204A68062A2DD80468606B02EB82024D
:10509000053A4FF01F0C0CFA02FC20EA0C000D68D8
:1050A00005FA02F2024362630A68092A38D91C68C9
:1050B000E06802EB42021E3A4FF0070C0CFA02FCC9
:1050C00020EA0C008D6805FA02F20243E2600A68E9
:1050D000103A012A34D90020002283F8242002B09B
:1050E00030BC70470C2A0DD80568286B02EB820291
:1050F000233A1F24944020EA04000C689440204383
:105100002863D1E70568E86A02EB8202413A1F246E
:10511000944020EA04000C6894402043E862C3E70E
:105120001C68206902EB42024FF0070C0CFA02FCEB
:1051300020EA0C008D6805FA02F202432261C6E7FC
:105140001A681648824205D09A6A42F020029A6292
:105150000120C1E7906810F4000F1BD1906840F463
:10516000000090600A68102A01D00020B4E70C4AC1
:1051700012680C49A1FB0212920C02EB820252004F
:10518000019202E0019A013A0192019A002AF9D1B2
:105190000020A1E700209FE70220A0E700240140B3
:1051A0002C00002083DE1B4330B583B00023019325
:1051B00003689A6812F0010F33D104469A6842F0EE
:1051C00001029A60184B1B68184AA2FB03239B0C30
:1051D000019302E0019B013B0193019B002BF9D15C
:1051E000FFF7EAFE054623689B6813F0010F16D10E
:1051F000FFF7E2FE431B022BF5D923689B6813F0EF
:10520000010FF0D1A36A43F01003A362E36A43F0F5
:105210000103E362002384F82430012002E000202F
:1052200000E0002003B030BD2C00002083DE1B43D3
:10523000F8B504460D46164601684448814259D0E7
:10524000434B994256D094F82430012B7CD0012353
:1052500084F824302046FFF7A7FF074600286ED1C8
:10526000A16A21F4706121F0010141F48071A16211
:105270002268374B9A4244D0A36A23F48013A36276
:10528000536813F4806F05D0A36A23F4405343F4AA
:105290008053A362A36A13F4805F48D0E36A23F0CB
:1052A0000603E362002384F82430236A294A9A62C1
:1052B000236A294ADA62236A284A1A6323686FF04C
:1052C00002021A602268936843F480739360216835
:1052D00033462A464C31206A00F0D8FC23689A688D
:1052E00002F46022B2F5602F24D09A6842F4801252
:1052F0009A6027E0154B5B6813F4702FA3D0012749
:1053000020E0A3F580635B6813F4702FB4D0A36A28
:1053100043F48013A3620D4B5B6813F4806FB9D024
:10532000A36A23F4405343F48053A362B2E70023FB
:10533000E362B7E79A6842F4A0029A6002E00023B1
:1053400084F824303846F8BD0227FBE700240140EA
:1053500000280140EF4F0008435000084F5000085C
:1053600038B503689A6812F0010F01D1002038BDEA
:1053700004469A6822F001029A60FFF71DFE054676
:1053800023689B6813F0010F13D0FFF715FE431B32
:10539000022BF5D923689B6813F0010FF0D0A36AA4
:1053A00043F01003A362E36A43F00103E3620120C8
:1053B000DDE70020DBE7000000287BD070B5044665
:1053C000836A002B4DD02046FFF7CAFFA36A13F073
:1053D000100369D1002867D1A26A22F4885222F012
:1053E000020242F00202A2626268E1690A43217B82
:1053F00042EA4102A568B5F5807F02D0012D36D082
:105400001D46267D012E35D02668716821F469413C
:10541000294371602568AE68274931401143A9606E
:10542000A168B1F5807F01D0012902D12369013B38
:105430001B052568E96A21F470010B43EB622368C0
:1054400099681E4B0B409A4225D0A36A23F01203A1
:1054500043F01003A362E36A43F00103E362012017
:1054600027E0C36280F82430FEF722FEABE74FF45A
:105470008075C6E731B9A169013945EA413141F486
:105480000065C1E7A16A41F02001A162E16A41F033
:105490000101E162B8E70023E362A36A23F003039A
:1054A00043F00103A36204E0A36A43F01003A36284
:1054B000012070BD01207047FDF7E1FFFE0E1FFFC8
:1054C00070B582B00023019390F82430012B72D084
:1054D0000446012380F82430FFF742FF2046FFF7FF
:1054E00063FE054628B1002384F82430284602B024
:1054F00070BDA36A23F4885323F0020343F0020330
:10550000A3622E4B1E68022002F058F9B6FBF0F69B
:105510007600019602E0019B013B0193019B002B69
:10552000F9D12268936843F008039360FFF744FDC4
:10553000064623689A6812F0080F14D0FFF73CFD66
:10554000801B0A28F5D923689B6813F0080FF0D058
:10555000A36A23F0120343F01003A362002384F82C
:1055600024300125C2E79A6842F004029A60FFF7EE
:1055700023FD064623689B6813F0040F14D0FFF741
:105580001BFD801B0A28F5D923689B6813F0040FC4
:10559000F0D0A36A23F0120343F01003A3620023A8
:1055A00084F824300125A1E7A36A23F0030343F024
:1055B0000103A36297E7022598E700BF2C000020B3
:1055C000002800F0A18038B5044690F82030D3B10F
:1055D0002268136843F001031360FFF7EDFC0546F2
:1055E00023685A6812F0010F10D1FFF7E5FC401B49
:1055F0000A28F5D9636A43F400336362052384F80B
:105600002030012038BDFEF7C1FDE1E71A6822F025
:1056100002021A60FFF7D0FC054623685A6812F0B0
:10562000020F0DD0FFF7C8FC401B0A28F5D9636AAA
:1056300043F400336362052384F820300120E1E75E
:10564000227E012A3DD01A6822F080021A60637E11
:10565000012B3BD02268136823F040031360A37E24
:10566000012B39D02268136823F020031360E37EF6
:10567000012B37D02268136843F010031360237F97
:10568000012B35D02268136823F008031360637F71
:10569000012B33D02268136823F004031360A3683E
:1056A000E268134322691343626913436268013A53
:1056B00021681343CB6100206062012384F820300D
:1056C000A0E71A6842F080021A60C0E722681368F7
:1056D00043F040031360C2E72268136843F02003DD
:1056E0001360C4E72268136823F010031360C6E751
:1056F0002268136843F008031360C8E72268136840
:1057000043F004031360CAE70120704790F820C0FB
:105710000CF1FF3C5FFA8CFCBCF1010F00F2A5809C
:1057200030B451B90468E46814F0030F10D1436A2F
:1057300043F40013436201207EE00468246914F0FE
:10574000030F05D1436A43F400134362012073E061
:10575000056801F11B0424012C5904F00404946031
:10576000002C6BD1056801F11B0424012C59640D38
:105770001460046801F11B0C4FEA0C1C54F80C4037
:1057800004F00204D4600468A444DCF8045015F06A
:10579000080F5BD008241461046801F11B0C04EBB2
:1057A0000C146468C4F307249461046804EB0C14BB
:1057B0006468240C5461026802EB0112D2F8B8212B
:1057C0001A70026802EB0112D2F8B821C2F3072264
:1057D0005A70026802EB0112D2F8B821C2F30742F4
:1057E0009A70026802EB0112D2F8B821120EDA7038
:1057F000026802EB0112D2F8BC211A71026802EBB6
:105800000112D2F8BC21C2F307225A71026802EBDE
:105810000112D2F8BC21C2F307429A71026802EB6E
:105820000112D2F8BC21120EDA71C1B90268D36834
:1058300043F02003D360002030BC7047056801F1BD
:105840001B0424012C59E408546092E701F11B0564
:1058500004EB0514646804F00F0414619CE702680B
:10586000136943F020031361E5E7436A43F480239F
:1058700043620120704790F82030013BDBB2012BDE
:1058800001D90020704721B90368D86800F00300EF
:1058900070470368186900F003007047704770474D
:1058A0007047704770477047704770477047704740
:1058B00070472DE9F84F054603685C69D3F804800A
:1058C0009F68D3F80CA0D3F81090D3F818B014F058
:1058D00001063BD017F0010616D001229A6017F09E
:1058E000020F08D117F0040F0CD117F0080606D0EC
:1058F0004FF4805608E0FFF7D1FF002604E0FFF7E1
:10590000D0FF01E04FF4006617F4807F0DD02B68C4
:105910004FF480729A6017F4007F40F0968017F47D
:10592000806F00F0968046F4005617F4803F0DD04B
:105930002B684FF480329A6017F4003F40F0938058
:1059400017F4802F00F0938046F4004614F0080FFF
:1059500007D01AF0100F04D046F400762B681022FE
:10596000DA6014F0040F03D01AF0080F40F08980B9
:1059700014F0020F05D02B68DB6813F0030F40F022
:10598000878014F0400F07D019F0100F04D046F4B0
:1059900080662B6810221A6114F0200F02D019F0D3
:1059A000080F79D114F0100F04D02B681B6913F085
:1059B000030F78D114F4003F02D018F0100F76D105
:1059C00014F4803F02D018F0080F77D114F4004F80
:1059D00037D018F0040F31D014F4807F04D01BF0BE
:1059E000010F01D046F0010614F4007F04D01BF033
:1059F000020F01D046F0020614F4806F04D01BF0B1
:105A0000040F01D046F0040614F4006F16D01BF00A
:105A1000700B13D0BBF1400F66D056D8BBF1200FEE
:105A20005CD0BBF1300F5CD0BBF1100F01D146F060
:105A300008062A68936923F0700393612B68042297
:105A40005A60002E56D1BDE8F88F2846FFF727FF91
:105A50006BE717F4006F02D046F4804665E72846EE
:105A6000FFF720FF61E72846FFF71AFF6EE717F4FC
:105A7000002F02D046F4803668E72846FFF713FF70
:105A800064E72B680822DA602846FFF70DFF6FE70E
:105A90002846FDF767FE74E72B6808221A6128463E
:105AA000FFF703FF7EE72846FDF772FE82E72B68CB
:105AB00010225A602846FFF7F9FE81E72B6808227A
:105AC0005A602846FFF7F3FE80E7BBF1500F0ED077
:105AD000BBF1600FADD146F48076AAE746F0100620
